:100000000C94F3000C941B010C941B010C941B0129
:100010000C941B010C941B010C941B010C941B01F0
:100020000C941B010C941B010C94E01A0C94721993
:100030000C941B010C941B010C941B010C941B01D0
:100040000C941B010C941B010C941B010C941B01C0
:100050000C941B010C941B010C941B010C945E135B
:100060000C941B010C941B010C941B010C941B01A0
:100070000C941B010C941B010C941B010C941B0190
:100080000C941B010C941B010C941B010C941B0180
:100090000C941B010C941B010C941B010C941B0170
:1000A0000C941B010C941B010C941B016D14701417
:1000B0005F146314691491149114911474147814D6
:1000C0007C148214861491148C1400000002000920
:1000D0000F0000030401000C0000000000000000FD
:1000E0000000000000000000000408020110408031
:1000F000401020408040800802040180402010020F
:10010000011080102040402004040404040304056E
:1001100002020202040302020202060606060606A4
:100120000404020202040400000000230026002947
:10013000002C002F0000000000250028002B002EBE
:1001400000310000000000240027002A002D0030AC
:1001500000080B0002020201000904000001020273
:1001600000000524001001052401010104240206F9
:100170000524060001070581031000400904010061
:10018000020A000000070502024000000705830282
:1001900040000012010002EF0201404123418000B3
:1001A000010102030112010002000000404123414D
:1001B0008000010102030141726475696E6F204C79
:1001C0004C430041726475696E6F2059756E00046E
:1001D000030904004501BB020603C806BB08510A17
:1001E000B10C1116991611241FBECFEFDAE0DEBF55
:1001F000CDBF13E0A0E0B1E0E2E4FFE302C0059070
:100200000D92AE36B107D9F724E0AEE6B3E001C0F7
:100210001D92A135B207E1F711E0C6EED1E004C0AE
:100220002297FE010E94491DC43DD107C9F70E94D3
:10023000771C0C949F1F0C94000088E00E9401150D
:10024000892B71F460E082E00E94CB1464EF71E0CE
:1002500080E090E00E94D71360E084E00E94CB141D
:10026000089588E00E940115019771F461E082E031
:100270000E94CB1464EF71E080E090E00E94D713FD
:1002800061E084E00E94CB1408950F9300E020E029
:1002900040E060E087E893E00E94721600EC2AE0FC
:1002A00048EA60EC81E893E00E94721660E570E035
:1002B0008BE793E00E9420098EE693E00F910C9467
:1002C000D4070F931F93CF93DF93CDB7DEB7629719
:1002D0000FB6F894DEBF0FBECDBF40E855E260E038
:1002E00070E080EE93E00E940B1661E082E00E94D5
:1002F000921460E088E00E94921460E082E00E9424
:10030000CB1460E084E00E94CB146AE071E0CE017F
:1003100001960E947E166EE071E0CE0107960E9463
:100320007E168AE593E09E878D8780918303909166
:100330008403A0918503B09186038F87988BA98B46
:10034000BA8B8E010F5F1F4F9E01295F3F4FAE0199
:10035000435F5F4F62E171E08DE993E00E944306E5
:100360008BE793E00E94DC0862960FB6F894DEBF3C
:100370000FBECDBFDF91CF911F910F910895FF92D6
:100380000F931F93CF93DF93CDB7DEB769970FB667
:10039000F894DEBF0FBECDBF6BE773E0CE010196D0
:1003A0000E94E409CE0101960E94FB06882309F40D
:1003B000A0C06EE573E0CE0144960E94E91BFF24C5
:1003C000F394CE0101960E949708882309F483C014
:1003D000CE0101960E942807892B99F3CE01019640
:1003E0000E943107182F682FCE0144960E94431CAB
:1003F0001A3009F040C0FF20B9F163E371E0CE018B
:1004000001960E94CB1663E471E0CE0101960E9432
:10041000CB16CE0101960E94C7166BE571E0CE01A6
:1004200001960E94BE1688E00E940115019719F4FA
:1004300063E871E002C063EC71E0CE0101960E94B6
:10044000BE1662E072E0CE0101960E94BE1669E41B
:1004500072E0CE0101960E94BE166FE872E0CE01F6
:1004600001960E94BE1637C06EE573E0CE01449639
:100470000E94FF1BA4CF1D3061F562ED72E0CE013A
:100480000E960E94E91BBE01625F7F4FCE0144962B
:100490000E94721C8C01CE010E960E947B1B17FFDE
:1004A0000E94310162EE72E0CE010E960E94E91BBD
:1004B000BE01625F7F4FCE0144960E94721C8C0188
:1004C000CE010E960E947B1B17FD7BCF0E941D0163
:1004D00078CFF12C76CF64EF71E080E090E00E945D
:1004E000D713CE0101960E945D08CE0144960E946A
:1004F0007B1B69960FB6F894DEBF0FBECDBFDF91B0
:10050000CF911F910F91FF900895CF93CFB7F8949B
:1005100080919003811127C0E9E1F1E08491EAEF35
:10052000F0E09491E82FF0E0EE0FFF1FED5BFE4F3F
:10053000A591B4918C91892321F461E081E10E941D
:10054000CB1461E081E10E9492148CB580618CBD76
:100550008CB580648CBD61E08FE00E94921461E0F4
:1005600080E10E949214809190038F5F80939003AA
:10057000CFBFCF9108950F9300E020E040E060E00E
:1005800081E993E00E9472160F910895FB01428168
:10059000538164817581FC01428353836483758335
:1005A000178216820895FB0120E080E090E06AE067
:1005B0003191332309F170ED730F7A3080F4DC014F
:1005C0006A9FC0016B9F900D1124C097830F911DEE
:1005D00037FD9A958F3F910559F350F314C03E3281
:1005E00091F4233081F0DA01A20FB11D12968C93A1
:1005F0002F5F80E090E0DCCF233029F4FA0185837F
:1006000081E090E0089580E090E008950F9300E08D
:1006100020E040E060E087E993E00E9472160F91CD
:100620000895AF92BF92CF92DF92EF92FF920F9315
:100630001F93CF93DF9300D000D01F92CDB7DEB7CA
:100640008C017B010E94A813F801778366837627CB
:10065000672776277A836983085F1F4F42E050E05F
:10066000BE016F5F7F4FC8010E94B30A81E090E036
:100670009C838B8342E050E0BE016D5F7F4FC801D9
:100680000E94B30A80E091E09C838B8342E050E0BB
:10069000BE016D5F7F4FC8010E94B30A1C821B829E
:1006A00042E050E0BE016D5F7F4FC8010E94B30A77
:1006B00042E050E0BE016D5F7F4FC8010E94B30A67
:1006C00042E050E0BE016D5F7F4FC8010E94B30A57
:1006D0006701F6018081882311F1F7016F01819193
:1006E000811115C05601AE18BF081A141B0494F4EA
:1006F000AD8241E050E0BE016B5F7F4FC8010E94B8
:10070000B30AA501B701C8010E94B30A03C08E3223
:1007100029F7E8CF7601FFEFEF1AFF0ADACF1D8243
:1007200041E050E0BE016B5F7F4FC8010E94B30AF9
:10073000E12CFF24F394FC82EB8242E050E0BE0106
:100740006D5F7F4FC8010E94B30AFC82EB8242E0DA
:1007500050E0BE016D5F7F4FC8010E94B30A81E087
:1007600090E00F900F900F900F900F90DF91CF912E
:100770001F910F91FF90EF90DF90CF90BF90AF90BF
:1007800008954F925F926F927F928F929F92AF9255
:10079000BF92CF92DF92EF92FF920F931F93CF936E
:1007A000DF93CDB7DEB763970FB6F894DEBF0FBE09
:1007B000CDBF7C015B016A010E94A8132B013C01A3
:1007C0008701085F1F4F4501A12CB12CC8010E9471
:1007D000530B1816190694F00E94A8136419750992
:1007E0008609970986169706A806B906D0F062E32F
:1007F00070E080E090E00E94D713E8CFF7014281DB
:10080000538164817581808D918DA28DB38D481740
:1008100059076A077B0741F4848D958DC59721F4AC
:1008200006C08FEF9FEFFAC08EEF9FEFF7C0C801B1
:100830000E94770A0C97ECF04CE050E0BE016F5F2D
:100840007F4FC8010E94F00A6C818B810E94761B49
:100850009A8B898BF701E680F7806A8189810E94F3
:10086000761BE816F90641F489899A8997FF04C036
:1008700009C08DEF9FEFD2C0C8010E94910A8CEF92
:100880009FEFCCC08F709270892B31F0C8010E940D
:10089000910A8BEF9FEFC2C068858F810E94761B03
:1008A0005C01009719F0E12CF12C23C0C8010E94D3
:1008B000910A8AEF9FEFB2C041E050E0BE01635F52
:1008C0007F4FC8010E94F00A8D8581111AC08D8565
:1008D0008111F2CFC8010E94C70AC8010E94C70A4D
:1008E000C8010E94C70AC8010E94C70AFFEFEF1A99
:1008F000FF0A6E818D810E94761BE816F906E0F2F0
:100900000AC08D859FEF980F9D87882301F3C8014A
:100910000E94C70AF6CFE12CF12C41E050E0BE0165
:100920006D5E7F4FC8010E94F00A8B89982F907CE2
:1009300061F4882371F08B899FEF980F9B8B88233C
:1009400041F0C8010E94C70AF6CFC8010E94C70A39
:100950001B8A8B898111E1CF42E050E0BE01615FCB
:100960007F4FC8010E94F00A42E050E0BE01635F81
:100970007F4FC8010E94F00AC8010E94C70AC8013F
:100980000E94C70AC8010E94C70AC8010E94C70A7C
:1009900042E050E0BE016F5E7F4FC8010E94F00A46
:1009A0008F8598898115914029F48D859E858115C3
:1009B000914019F0812C912C16C089899A89811552
:1009C000944031F0C8010E94910A87EF9FEF26C042
:1009D000B6016E5F7F4F44E050E0C8010E94F00A0C
:1009E00081E090E01BC089899A89982789279827F8
:1009F0008816990638F4C8010E94C70A2FEF821A98
:100A0000920AF1CF8FEFE81AF80AEA14FB0409F012
:100A100084CFC8010E94910A86EF9FEF63960FB6BC
:100A2000F894DEBF0FBECDBFDF91CF911F910F9124
:100A3000FF90EF90DF90CF90BF90AF909F908F90FE
:100A40007F906F905F904F9008958F929F92AF929A
:100A5000BF92CF92DF92EF92FF920F931F93CF93AB
:100A6000DF9300D000D000D0CDB7DEB78C015B01A2
:100A70006A010E94D3024C01009709F05DC0F801A1
:100A800042815381648175818091990390919A0389
:100A9000A0919B03B0919C03481759076A077B07F5
:100AA00009F44EC00E94A8137801F8E0EF0EF11C83
:100AB0006F7077277C5FC7010E94260B813009F099
:100AC00043C08AE593E09A838983F8018281938108
:100AD000A481B5818B839C83AD83BE8345E350E0C5
:100AE000BE016F5F7F4FC7010E94A70A892B19F4CF
:100AF000812C912C1DC0B501C8010E941103892BC6
:100B0000B9F3C7010E94AF0A892B91F333E0A32EFA
:100B1000B12CA60168E873E1C8010E94C1034C0131
:100B2000F1E0AF1AB10821F08F3F2FEF920789F360
:100B3000C7010E94920A08C088248394912C04C0A3
:100B40009EEF892E99249A94C40126960FB6F894A4
:100B5000DEBF0FBECDBFDF91CF911F910F91FF90F0
:100B6000EF90DF90CF90BF90AF909F908F900895BF
:100B700020918F03222399F03FB7F89420918F039F
:100B8000213059F42DB320938D034DB320918E0362
:100B9000209524232DBB3FBF02C030938D038CBD15
:100BA0009DBD089580918F03882361F09FB7F894CD
:100BB00020918F0380918D03213019F48DBB9FBF4D
:100BC00008958FBF089544E050E0BC0181E090E0BB
:100BD0000C94541144E050E0BC0185E090E00C948A
:100BE000541144E050E0BC018FE090E00C945411AB
:100BF0008F929F92AF92BF92CF92DF92EF92FF922D
:100C00000F931F93CF93DF9300D0CDB7DEB74C0186
:100C10006A01590187EC93E069837A830E94EC10A2
:100C200080E590E00E94B80546E050E069817A8155
:100C300089E090E00E945411C60102960E94F105DD
:100C4000C80102960E94E305C70102960E94EA05C8
:100C50000E94D205F5014281538164817581F401BE
:100C600042835383648375830F900F90DF91CF91FC
:100C70001F910F91FF90EF90DF90CF90BF90AF90BA
:100C80009F908F9008956F927F928F929F92AF92D4
:100C9000BF92CF92DF92EF92FF920F931F93CF9369
:100CA000DF93CDB7DEB76E970FB6F894DEBF0FBEF9
:100CB000CDBF6C015B017A014901380100E02FEFE3
:100CC0004FEF6FEFCE0149960E9472162AE533E08E
:100CD0003A8329838B8D9C8DAD8DBE8D8B839C83B8
:100CE000AD83BE8338872F83F30182819381A481F2
:100CF000B58189879A87AB87BC873E872D87F401AA
:100D000082819381A481B5818F87988BA98BBA8BBF
:100D10003C8B2B8BF70142815381648175814D8B14
:100D20005E8B6F8B788FCE0101967C018E01095FFF
:100D30001F4F9E01235F3F4FAE014D5E5F4FB501D8
:100D4000C6010E94F8056E960FB6F894DEBF0FBE7E
:100D5000CDBFDF91CF911F910F91FF90EF90DF906A
:100D6000CF90BF90AF909F908F907F906F9008959D
:100D70002AE533E0FC0131832083FB01428153816A
:100D800064817581FC014283538364837583089574
:100D90000F9300E020E040E060E08DEA93E00E94E5
:100DA00072168DE993E00F910C94681681E0862706
:100DB0000895862F0895DC01ED91FC91048CF58D4A
:100DC000E02D099591E089270895CF93DF931F9235
:100DD000CDB7DEB76983DC01ED91FC910280F38130
:100DE000E02D41E050E0BE016F5F7F4F09950F900D
:100DF000DF91CF91089521E0FC018485843009F4CE
:100E000020E0822F0895FC019485FB0184859813CE
:100E100003C081E0943009F480E008950F931F939C
:100E2000CF93DF93EC018A018C85843021F00E94FE
:100E30008E0E892B39F481E090E09B838A8380E0D9
:100E400090E001C0C801DF91CF911F910F910895EB
:100E5000FC018485843011F00C94850F80E090E0D3
:100E60000895CF93DF931F92CDB7DEB741E050E0F6
:100E7000BE016F5F7F4FFC0184850E94250F18160D
:100E800019061CF4898190E002C08FEF9FEF0F904C
:100E9000DF91CF910895FC0184850C94250F0F9369
:100EA0001F93CF93DF931F92CDB7DEB78C01DC0188
:100EB000ED91FC910480F581E02D0995892B51F08D
:100EC000BE016F5F7F4FF80184850E94B00F89815A
:100ED00090E002C08FEF9FEF0F90DF91CF911F91B5
:100EE0000F910895FC0184850C94DF0FCF92DF925F
:100EF000EF92FF920F931F93CF93DF93CDB7DEB79F
:100F0000AF970FB6F894DEBF0FBECDBF7C018B014B
:100F10006A01CE0101960E946816CE0109960E94D0
:100F2000390CCE018A960E9468166DE973E0CE01F5
:100F300084960E94B806BE016C5D7F4FCE0101967B
:100F40000E94C602AE01465D5F4FB801CE01019618
:100F50000E94250581309105C1F4D701ED91FC91E6
:100F60000484F585E02D8AE593E09DA38CA30CA570
:100F70001DA52EA53FA50EA31FA328A739A7A6012F
:100F8000BE016C5D7F4FC7010995AF960FB6F8940F
:100F9000DEBF0FBECDBFDF91CF911F910F91FF90AC
:100FA000EF90DF90CF900895FC011382128248EEFB
:100FB00053E060E070E0448355836683778386EF77
:100FC00092E09183808384E084870895FC01262F3A
:100FD0001382128248EE53E060E070E04483558350
:100FE0006683778386EF92E09183808324870895D8
:100FF000FC018485843011F00C94380D80E0089554
:10100000DF92EF92FF920F931F93CF93DF93EC0148
:101010007B018A018C85843009F045C0D12C8D2D4F
:101020000E94380D811102C0DC8607C08B7F883199
:10103000D9F3D39484E0D812F2CF8C85843099F11F
:1010400020911801309119012F5F3F4F11F420E0DA
:1010500030EC309319012093180140911801509100
:10106000190120E061E00E948A0DB7016E5F7F4F99
:10107000A8018C850E94100E811103C084E08C872A
:1010800012C0CE010E94F807873151F061E070E094
:1010900080E090E00E94D713CE010E94F807ECCFC9
:1010A00081E090E002C080E090E0DF91CF911F915D
:1010B0000F91FF90EF90DF900895CF92DF92EF9223
:1010C000FF92CF93DF93EC018C85843049F10E942D
:1010D000680E0E94A8136B017C01CE010E94F807E4
:1010E0008823A1F061E070E080E090E00E94D713D7
:1010F0000E94A8136C197D098E099F09683E7340F0
:101100008105910550F38C850E94600DEC85F0E01F
:10111000EE0FFF1FEB55FC4F1182108284E08C878D
:10112000DF91CF91FF90EF90DF90CF900895CF9314
:10113000DF93EC018C858430D1F0CE010E94F8075A
:101140008431A9F0882399F0883189F08C3169F4D1
:10115000E881F9810480F581E02DCE01099521E037
:10116000892B09F420E0822F03C081E001C080E0D8
:10117000DF91CF9108950F9300E020E040E060E020
:1011800083EB93E00E9472160F910895CF93DF9343
:101190001F92CDB7DEB76983DC01ED91FC9102802F
:1011A000F381E02D41E050E0BE016F5F7F4F099574
:1011B0000F90DF91CF910895EF92FF920F931F93BD
:1011C000CF93DF93CDB7DEB72D970FB6F894DEBF80
:1011D0000FBECDBF7C0100E010E0602FCE01019674
:1011E0000E94E607CE0101960E94F807811116C001
:1011F000F7014481558120E061E0802F0E948A0D33
:10120000802F0E94DE0DF70184819581F801EE0F99
:10121000FF1FEB55FC4F9183808305C00F5F1F4F6D
:1012200004301105D1F62D960FB6F894DEBF0FBE2F
:10123000CDBFDF91CF911F910F91FF90EF90089557
:10124000FC01138212828AE193E09183808375838B
:1012500064830895BF92CF92DF92EF92FF920F9333
:101260001F93CF93DF93CDB7DEB72D970FB6F894CA
:10127000DEBF0FBECDBF8C0145EAC42E43E0D42EA5
:10128000B12CE12CF12C6B2DCE0101960E94E607CA
:10129000D6012D913D916D01F8018481958128172A
:1012A0003907B1F4CE0101960E94F807843169F044
:1012B000CE0101960E94F8078C3151F4CE010196BF
:1012C0000E942807892B99F003C0EE24E394F12CA7
:1012D000B394F4E0BF12D7CFEF2871F4D801ED91A9
:1012E000FC910480F581E02DC801099505C0CE016F
:1012F00001960E945D08ECCF2D960FB6F894DEBFE4
:101300000FBECDBFDF91CF911F910F91FF90EF9056
:10131000DF90CF90BF9008957F928F929F92AF926F
:10132000BF92CF92DF92EF92FF920F931F93CF93D2
:10133000DF93CDB7DEB72D970FB6F894DEBF0FBEA3
:10134000CDBF6C015B014A010E942A0955EAE52ED6
:1013500053E0F52E712C00E010E0672DCE010196D0
:101360000E94E607F701219131917F01F601848106
:1013700095812817390731F4CE0101960E94F807AC
:101380008731C9F07394F4E07F12E7CFC8012D963E
:101390000FB6F894DEBF0FBECDBFDF91CF911F9186
:1013A0000F91FF90EF90DF90CF90BF90AF909F9004
:1013B0008F907F900895A401B501CE0101960E94FF
:1013C0000E07080F191FDECFBF92CF92DF92EF9268
:1013D000FF920F931F93CF93DF93CDB7DEB72D9777
:1013E0000FB6F894DEBF0FBECDBF8C016B01CB01F1
:1013F0000E942A0965EAE62E63E0F62EB12C6B2DD9
:10140000CE0101960E94E607F701219131917F01FB
:10141000F601848195812817390751F5CE0101968F
:101420000E94F807873111F08C3111F5CE01019639
:101430000E942807892BE1F08B819C81F80193831E
:1014400082838D819E81AF81B88584839583A683B5
:10145000B78349855A856B857C854087518762872C
:10146000738786EF92E0918380838D85848708C09F
:10147000B394F4E0BF12C3CF64E0C8010E94E60752
:10148000C8012D960FB6F894DEBF0FBECDBFDF9119
:10149000CF911F910F91FF90EF90DF90CF90BF9071
:1014A00008950F9300E020E040E060E089EB93E0D6
:1014B0000E9472160F910895DC01ED91FC91008C51
:1014C000F18DE02D09942AE533E0FC01318320837E
:1014D000FB014089518962897389FC0142835383EE
:1014E000648375830895FC01848995890895FC01BE
:1014F000818D928D0895CF93DF931F92CDB7DEB784
:101500006983DC01ED91FC910280F381E02D41E0E3
:1015100050E0BE016F5F7F4F09950F90DF91CF9133
:1015200008950895CF93DF93EC01888D843061F0A6
:101530000E94600DE88DF0E0EE0FFF1FEB55FC4FB1
:101540001182108284E0888FDF91CF910895FC0191
:10155000178A168A6E5F7F4F808D0C942710FC01CE
:10156000808D0C946D10CF93DF93EC019A018E89DE
:101570009F89AB01BC01888D0E94E00F2E893F89B5
:10158000280F391F3F8B2E8BDF91CF9108950F933A
:101590001F93CF93DF931F92CDB7DEB78C01FC0171
:1015A000818D928D892B59F041E050E0BE016F5F33
:1015B0007F4F808D0E94250F181619061CF08FEFA3
:1015C0009FEF08C0F801818D928D0197928F818FD6
:1015D000898190E00F90DF91CF911F910F91089535
:1015E000CF93DF93EC01898D9A8D009719F48FEFDB
:1015F0009FEF10C04817590708F0AC01888D0E9472
:10160000250F181619069CF7298D3A8D281B390BC2
:101610003A8F298FDF91CF910895CF93DF931F9257
:10162000CDB7DEB7FC01218D328D232B49F0BE01F1
:101630006F5F7F4F808D0E94B00F898190E002C064
:101640008FEF9FEF0F90DF91CF910895FF920F934F
:101650001F93CF93DF93EC018B01888D8430E1F4ED
:10166000F12C8F2D0E94380D811102C0F88E06C01A
:101670008831E1F3F39484E0F812F3CF888D84305D
:1016800059F01D870C871A8E198E20E0A80162E0A0
:101690000E948A0D81E001C080E0DF91CF911F910F
:1016A0000F91FF9008950F931F93CF93DF93CDB7C2
:1016B000DEB728970FB6F894DEBF0FBECDBF8C0102
:1016C000F801818D928D892B49F0D801ED91FC9123
:1016D0000680F781E02DC8010995F2CF808D0E9428
:1016E000850F1816190644F548E050E0BE016F5FFB
:1016F0007F4FD80158968C910E94250F1816190615
:10170000ECF4BE016F5F7F4FC8010E960E948E16EB
:101710008D8190E0982F88272E81820F911DF801EE
:10172000958B848B8F8190E0982F88272885820F56
:10173000911D928F818F02C080E090E028960FB6B5
:10174000F894DEBF0FBECDBFDF91CF911F910F91F7
:1017500008958F929F92AF92BF92CF92DF92EF92B5
:10176000FF920F931F93CF93DF9300D000D000D050
:10177000CDB7DEB78C017B014A01FC01808D84303E
:1017800009F063C073E0A72E74E0B72EC12CD12CF2
:10179000C5010E948311811103C0F801C08E0AC0E7
:1017A0008831D9F3FFEFCF1ADF0AB394E4E0CE1605
:1017B000D10471F7F801808D843009F446C096E0B9
:1017C000EDE2F1E0DE01119601900D929A95E1F7BC
:1017D000F70193819F779C8394819D8395819E835C
:1017E000B7016E5F7F4F90E0982F882744E050E06C
:1017F000845F9B4F0E945411F801808D90E0049605
:10180000F82EEE24692DC70140960E94CA10682D5B
:10181000C70141960E94CA10F801808D90E0982F70
:10182000882746E050E0BE016F5F7F4F8A5F9B4F85
:101830000E945411F801128E118E20E8A40162E07A
:10184000808D0E948A0D81E001C080E026960FB64F
:10185000F894DEBF0FBECDBFDF91CF911F910F91E6
:10186000FF90EF90DF90CF90BF90AF909F908F90C0
:101870000895CF93DF93EC011B821A8248EE53E068
:1018800060E070E04C835D836E837F8384E293E04D
:1018900099838883CE010E960E94681684E0888F13
:1018A000DF91CF910895CF92DF92EF92FF920F9345
:1018B0001F93CF93DF93CDB7DEB7AF970FB6F894F2
:1018C000DEBF0FBECDBF7C018B016A01CE01019648
:1018D0000E946816CE0109960E94390CCE018A96A4
:1018E0000E9468166DE973E0CE0184960E94B806E6
:1018F000BE016C5D7F4FCE0101960E94C602AE0113
:10190000465D5F4FB801CE0101960E9425058130EA
:101910009105C1F4D701ED91FC910088F189E02D8A
:101920008AE593E09DA38CA30CA51DA52EA53FA53C
:101930000EA31FA328A739A7A601BE016C5D7F4F88
:10194000C7010995AF960FB6F894DEBF0FBECDBFA5
:10195000DF91CF911F910F91FF90EF90DF90CF908B
:1019600008950F9300E020E040E060E08FEB93E00B
:101970000E9472160F910895CF92DF92EF92FF921C
:101980000F9330E0C12CF2E1DF2EFAE7EF2EF12CBD
:101990004C155D056E057F0540F4F694E794D794E9
:1019A000C7943F5F3630A1F737E041E0432721116C
:1019B00002C050E701C050E5242F30E0359527954F
:1019C00023700C70202B252BFC0120834170418358
:1019D0000F91FF90EF90DF90CF90089590E0982FB7
:1019E000882744E050E0845F9B4F0C945411282FCB
:1019F00030E02C5F3F4F922F8827860F971F0C9463
:101A0000831162E070E00C94F70CFB01282F30E0AA
:101A10002C5F3F4F922F8827642F8E0F9F1F0C94AF
:101A2000CA10CF93DF93C82FD62F472F64E070E002
:101A30000E94050D4D2F65E070E08C2FDF91CF9156
:101A40000C94050D462F62E070E00C94050DCF93C9
:101A5000DF93C82FD62F472F60E170E00E94050D5D
:101A60004D2F61E170E08C2FDF91CF910C94050D2B
:101A70000F931F93CF93DF9300D01F92CDB7DEB7A4
:101A8000182F00E021E040E059E06DE370E0CE0166
:101A900001960E94BC0C89819A810E94B80563E07E
:101AA00070E0812F0E94F70C8B830E94D2058B81FE
:101AB0000F900F900F90DF91CF911F910F9108958C
:101AC0000F931F93CF93DF9300D0CDB7DEB7182FBE
:101AD00000E021E040E059E06DE370E0CE010196C6
:101AE0000E94BC0C89819A810E94B80540E150E0B7
:101AF000612F87EC93E00E944D136FEF812F0E94BE
:101B0000220D0E94D2050F900F90DF91CF911F916F
:101B10000F910895CF92DF92EF92FF920F931F9350
:101B2000CF93DF9300D0CDB7DEB7182FD62E7A0132
:101B3000C22E8FEF860F8530A8F5812F0E94600D91
:101B400000E021E040E059E06DE370E0CE01019655
:101B50000E94BC0C89819A810E94B8054D2D4C29A8
:101B600060E070E0812F0E94050DE114F10411F096
:101B7000B7010AC06091C5037091C6036F5F7F4FC4
:101B80007093C6036093C503812F0E94110D41E03D
:101B900050E0612F87EC93E00E944D130E94D20524
:101BA00081E001C080E00F900F90DF91CF911F91F5
:101BB0000F91FF90EF90DF90CF9008950F931F93B8
:101BC000CF93DF9300D0CDB7DEB7182F00E021E030
:101BD00040E059E06DE370E0CE0101960E94BC0C3C
:101BE00089819A810E94B80563E070E0812F0E948C
:101BF000F70C833121F00E94D20580E00AC042E058
:101C000050E0612F87EC93E00E944D130E94D205B3
:101C100081E00F900F90DF91CF911F910F91089568
:101C2000CF92DF92EF92FF920F931F93CF93DF93A8
:101C300000D0CDB7DEB7182F7B016A01FB01808190
:101C40008F3F51F481818F3F99F482818F3F81F4DE
:101C500083818F3F69F430C081110AC0FB0181810B
:101C6000811106C08281811103C08381882321F103
:101C7000C114D10409F100E021E040E059E06DE336
:101C800070E0CE0101960E94BC0C89819A810E946D
:101C9000B805B701812F0E94EE0CB601812F0E947A
:101CA000270D44E050E0612F87EC93E00E944D1334
:101CB0000E94D20581E001C080E00F900F90DF917B
:101CC000CF911F910F91FF90EF90DF90CF900895EB
:101CD0000F931F93CF93DF9300D0CDB7DEB7182FAC
:101CE00000E021E040E059E06DE370E0CE010196B4
:101CF0000E94BC0C89819A810E94B80548E050E09E
:101D0000612F87EC93E00E944D130E94D2050F9043
:101D10000F90DF91CF911F910F910895BF92CF92B5
:101D2000DF92EF92FF920F931F93CF93DF9300D038
:101D30001F92CDB7DEB7B82E6B017A01413088E033
:101D4000580718F0E12C98E0F92E00E021E040E07F
:101D500059E06DE370E0CE0101960E94BC0C8981D0
:101D60009A810E94B8056B2D87EC93E00E94BB110D
:101D70008C0163E070E08B2D0E94F70C8B830E9436
:101D8000D2058B81873111F08C3131F40E945D13C3
:101D90000E151F05D0F202C0E12CF12C00E021E06D
:101DA00040E059E06DE370E0CE0101960E94BC0C6A
:101DB00089819A810E94B8059701A6016B2D87EC55
:101DC00093E00E947A1240E250E06B2D87EC93E0A2
:101DD0000E944D138B2D0E94010D84FD22C063E0F3
:101DE00070E08B2D0E94F70C811108C00E94D20573
:101DF0008B2D0E94600D80E090E01AC00E94D205F9
:101E00000E945D1300E021E040E059E06DE370E0E6
:101E1000CE0101960E94BC0C89819A810E94B8056E
:101E2000D9CF60E18B2D0E94220D0E94D205C701FF
:101E30000F900F900F90DF91CF911F910F91FF9016
:101E4000EF90DF90CF90BF900895AF92BF92CF9266
:101E5000DF92EF92FF920F931F93CF93DF9300D007
:101E6000CDB7DEB7182F5B016A0100E021E040E04A
:101E700059E06DE370E0CE0101960E94BC0C8981AF
:101E80009A810E94B805612F87EC93E00E94EF11C0
:101E90007C010097A1F463E070E0812F0E94F70CB1
:101EA000843119F1882309F121E030E08C3111F4FB
:101EB00020E030E0EE24FF24E21AF30A16C0C81630
:101EC000D9060CF476011E141F047CF400E097017F
:101ED000A501612F87EC93E00E94FD1240E450E0E1
:101EE000612F87EC93E00E944D130E94D205C70139
:101EF0000F900F90DF91CF911F910F91FF90EF9076
:101F0000DF90CF90BF90AF9008950F931F93CF9322
:101F1000DF9300D000D0CDB7DEB7182F00E021E06E
:101F200040E059E06DE370E0CE0101960E94BC0CE8
:101F300089819A810E94B805612F87EC93E00E9405
:101F4000EF118B839C830E94D2058B819C810F9023
:101F50000F900F900F90DF91CF911F910F910895E7
:101F6000EF92FF920F931F93CF93DF9300D0CDB7E3
:101F7000DEB7182F7B0100E021E040E059E06DE37F
:101F800070E0CE0101960E94BC0C89819A810E946A
:101F9000B80501E021E030E0A701612F87EC93E074
:101FA0000E94FD120E94D20581E090E00F900F90F8
:101FB000DF91CF911F910F91FF90EF9008950895B9
:101FC0009F92AF92BF92CF92DF92EF92FF920F93C8
:101FD0001F93CF93DF9300D0CDB7DEB7982E6B0160
:101FE0005A01790100E021E040E059E06DE370E042
:101FF000CE0101960E94BC0C89819A810E94B8058D
:10200000692D87EC93E00E94BB118E159F0530F47B
:10201000692D87EC93E00E94BB117C01870195013B
:10202000A601692D87EC93E00E940B120E94D20555
:10203000C7010F900F90DF91CF911F910F91FF90EB
:10204000EF90DF90CF90BF90AF909F900895CF9288
:10205000DF92EF92FF920F931F93CF93DF9300D005
:10206000CDB7DEB7182F7B016A01FB01808181119A
:1020700009C08181811106C08281811103C08381E1
:102080008823F1F0C114D104D9F000E021E040E050
:1020900059E06DE370E0CE0101960E94BC0C89818D
:1020A0009A810E94B805B701812F0E94EE0CB601FB
:1020B000812F0E94270D0E94D20581E090E002C08E
:1020C00080E090E00F900F90DF91CF911F910F91E2
:1020D000FF90EF90DF90CF9008950F931F93CF93D1
:1020E000DF9300D0CDB7DEB7182F00E021E040E04D
:1020F00059E06DE370E0CE0101960E94BC0C89812D
:102100009A810E94B80540E250E0612F87EC93E08D
:102110000E944D13812F0E94010D84FD21C0812F4B
:102120000E94010D83FF09C068E1812F0E94220DEA
:102130000E94D20580E090E01BC00E94D2050E9460
:102140005D1300E021E040E059E06DE370E0CE0176
:1021500001960E94BC0C89819A810E94B805DACF51
:1021600060E1812F0E94220D0E94D20581E090E063
:102170000F900F90DF91CF911F910F9108958EBD19
:1021800000000DB407FEFDCF8EB508952E9808957A
:102190002E9A08951F93CF93DF9300D0CDB7DEB76B
:1021A000182F6A8399830E94C61080EF0E94BF1087
:1021B0009981892F0E94BF10812F0E94BF106A81D0
:1021C000862F0E94BF100E94C81081E00F900F90D0
:1021D000DF91CF911F910895CF93DF93EC016CE2D3
:1021E00071E080E090E00E94D7130E948502269A59
:1021F00080918F03882399F09FB7F89480918F0383
:10220000813059F48DB380938D032DB380918E036B
:10221000809582238DBB9FBF02C090938D0380E584
:102220008CBD1DBC60E880E090E00E94CA1065E5AE
:102230008BE190E00E94CA1065E58AE190E00E947F
:10224000CA1080918F03882361F09FB7F894209182
:102250008F0380918D03213019F48DBB9FBF01C086
:102260008FBF80E090E49983888380E090E699872F
:10227000888780E098E49B838A8380E098E69B8748
:102280008A8780E090E59D838C8380E090E79D873E
:102290008C8780E098E59F838E8380E098E79F8716
:1022A0008E87DF91CF910895CF92DF92EF92FF92C8
:1022B0000F931F93CF93DF93EC017A018B016C0195
:1022C000C40ED51ECC15DD05A1F00E94C61080EF0E
:1022D0000E94BF108D2F0E94BF108C2F0E94BF1034
:1022E0002196F80181918F010E94BF100E94C810B1
:1022F000E9CFC701DF91CF911F910F91FF90EF9030
:10230000DF90CF9008951F93CF93DF931F92CDB7A7
:10231000DEB7182F99830E94C6108FE00E94BF106D
:102320009981892F0E94BF10812F0E94BF1080E0E9
:102330000E94BF1089830E94C81089810F90DF918D
:10234000CF911F9108951F93CF93DF93182F60E2D1
:1023500070E00E94F70CC82FD0E061E270E0812F9E
:102360000E94F70CDC2FCC279E01282BC901DF919E
:10237000CF911F910895FF920F931F93CF93DF93F7
:10238000F62EC0E0D0E08F2D0E94A3118C010097A3
:1023900021F08F2D0E94A311EC01C017D10799F7EE
:1023A000CE01DF91CF911F910F91FF9008951F9360
:1023B000CF93DF93182F66E270E00E94F70CC82FCE
:1023C000D0E067E270E0812F0E94F70CDC2FCC2771
:1023D0009E01282BC901DF91CF911F910895FF9293
:1023E0000F931F93CF93DF93F62EC0E0D0E08F2D95
:1023F0000E94D7118C01009721F08F2D0E94D711D8
:10240000EC01C017D10799F7CE01DF91CF911F9151
:102410000F91FF9008956F927F929F92AF92BF921B
:10242000CF92DF92EF92FF920F931F93CF93DF93A0
:102430001F92CDB7DEB7D82E962E3A01590164E22D
:1024400070E0892D99830E94F70CE82EF12C65E24B
:1024500070E0892D0E94F70CFE2CEE24E82AE60C91
:10246000F71C970137706D2C9981792E690C711CBE
:10247000690C711CD301ED91FC91E20FF31FC901AE
:10248000800F911F81309840A0F0C12C48E0D42EDD
:10249000C21AD30AA601B501CF010E945411A801A6
:1024A0004C195D09B5016C0D7D1DF3018081918191
:1024B00003C0A801B501CF010E945411E00EF11E26
:1024C0004F2D64E270E0892D0E94050D4E2D65E2CE
:1024D00070E0892D0F90DF91CF911F910F91FF90A8
:1024E000EF90DF90CF90BF90AF909F907F906F90D4
:1024F0000C94050D0F931F9389019A0140E050E061
:102500000E940B121F910F910895CF92DF92EF92CC
:10251000FF920F931F93CF93DF93EC017A018B010E
:102520006C01C40ED51ECC15DD05A9F00E94C610A5
:102530008FE00E94BF108D2F0E94BF108C2F0E9431
:10254000BF10219680E00E94BF10F80181938F0197
:102550000E94C810E8CFC701DF91CF911F910F9162
:10256000FF90EF90DF90CF900895AF92BF92CF92FF
:10257000DF92EF92FF920F931F93CF93DF9300D0E0
:10258000CDB7DEB75A8349835901E981FA81F770E3
:102590007C01E60EF11CE60EF11CD70118968D9118
:1025A0009C9119978E0F9F1F98012E0F3F1F21306E
:1025B000384098F0C12C68E0D62ECE1ADF0AA6016A
:1025C000B5010E948512A8014C195D09B5016C0D79
:1025D0007D1DF7018085918502C0A801B5010F908E
:1025E0000F90DF91CF911F910F91FF90EF90DF90AF
:1025F000CF90BF90AF900C9485128F929F92AF9224
:10260000BF92CF92DF92EF92FF920F931F93CF93DF
:10261000DF936C01962E5A017901802E68E270E0FA
:10262000892D0E94F70CC82FD0E069E270E0892D57
:102630000E94F70CDC2FCC27C82B87019501AE0137
:10264000692DC6010E94B51281101AC0CE0DDF1D82
:102650004D2F68E270E0892D0E94050D4C2F69E234
:1026600070E0892DDF91CF911F910F91FF90EF9036
:10267000DF90CF90BF90AF909F908F900C94050DFE
:10268000DF91CF911F910F91FF90EF90DF90CF904E
:10269000BF90AF909F908F900895CF93C62F61E029
:1026A00070E08C2F0E94050D61E070E08C2F0E947D
:1026B000F70C8111F9CFCF91089508951F920F92D1
:1026C0000FB60F9211242F933F938F939F93AF9345
:1026D000BF938091D8039091D903A091DA03B09170
:1026E000DB033091D70323E0230F2D3720F401962D
:1026F000A11DB11D05C026E8230F0296A11DB11D25
:102700002093D7038093D8039093D903A093DA033F
:10271000B093DB038091DC039091DD03A091DE0395
:10272000B091DF030196A11DB11D8093DC0390934E
:10273000DD03A093DE03B093DF03BF91AF919F91C0
:102740008F913F912F910F900FBE0F901F90189572
:102750002FB7F8946091D8037091D9038091DA0370
:102760009091DB032FBF08953FB7F8948091DC036D
:102770009091DD03A091DE03B091DF0326B5A89B05
:1027800005C02F3F19F00196A11DB11D3FBF66275F
:10279000782F892F9A2F620F711D811D911D42E0A4
:1027A000660F771F881F991F4A95D1F70895CF921A
:1027B000DF92EF92FF92CF93DF936B017C010E9437
:1027C000B413EB01C114D104E104F10489F00E94B7
:1027D0005D130E94B4136C1B7D0B683E734090F335
:1027E00081E0C81AD108E108F108C851DC4FEACFEE
:1027F000DF91CF91FF90EF90DF90CF900895789484
:1028000084B5826084BD84B5816084BD85B58260F5
:1028100085BD85B5816085BDEEE6F0E08081816093
:102820008083E1E8F0E01082808182608083808193
:1028300081608083E0E8F0E0808181608083E1E96D
:10284000F0E0808182608083808181608083E0E924
:10285000F0E0808181608083E1ECF0E08081846041
:102860008083808182608083808181608083E3ECCB
:10287000F0E0808181608083E0ECF0E08081826024
:102880008083E2ECF0E0808181608083EAE7F0E021
:102890008081846080838081826080838081816088
:1028A0008083808180688083089590E0FC01319767
:1028B000EF30F105B0F5EA5AFF4F0C94471D8091B7
:1028C00080008F7703C0809180008F7D809380008F
:1028D000089580918000877FF9CF84B58F7702C0FB
:1028E00084B58F7D84BD0895809190008F7707C057
:1028F000809190008F7D03C080919000877F8093AE
:10290000900008958091C0008F7703C08091C0002F
:102910008F7D8093C00008958091C200877F80934F
:10292000C2000895CF93DF9390E0FC01E751FF4F81
:102930002491FC01E85FFE4F8491882349F190E0E7
:10294000880F991FFC01ED5BFE4FA591B4918B5C44
:102950009E4FFC01C591D4919FB7611108C0F894B6
:102960008C91209582238C93888182230AC06230C7
:1029700051F4F8948C91322F309583238C93888175
:10298000822B888304C0F8948C91822B8C939FBFF8
:10299000DF91CF9108950F931F93CF93DF931F92F1
:1029A000CDB7DEB7282F30E0F901E653FF4F849111
:1029B000F901E751FF4F1491F901E85FFE4F0491CF
:1029C0000023C9F0882321F069830E94551469818E
:1029D000E02FF0E0EE0FFF1FEB5CFE4FA591B491EE
:1029E0009FB7F8948C91611103C01095812301C0A9
:1029F000812B8C939FBF0F90DF91CF911F910F91EF
:102A00000895CF93DF93282F30E0F901E653FF4F6D
:102A10008491F901E751FF4FD491F901E85FFE4F2E
:102A2000C491CC2391F081110E945514EC2FF0E059
:102A3000EE0FFF1FE95DFE4FA591B4912C912D2360
:102A400081E090E021F480E002C080E090E0DF913E
:102A5000CF910895CF93DF931F92CDB7DEB76983EF
:102A6000DC01ED91FC910280F381E02D41E050E02A
:102A7000BE016F5F7F4F09950F90DF91CF91089551
:102A8000CF93DF93EC018C859D8597FF05C082E095
:102A90000E945B189D878C878C859D85DF91CF91E7
:102AA000089583E00C94D61AFC018485958597FDE2
:102AB00006C082E00E94031890E00196089582E02B
:102AC0000E94031890E00895FC018485958597FD88
:102AD00005C02FEF3FEF35872487089582E00C94DF
:102AE0005B18CF93DF93EC0180912501882331F0AF
:102AF00083E00E948C181816190634F081E090E0EB
:102B00009B838A8380E090E0DF91CF910895FC0160
:102B100020812E5F208342E450E061E571E080E88F
:102B20000C942719FC0121818081813A59F42132CA
:102B300009F05CC047E050E06EE171E080E00E9487
:102B4000271967C0813209F051C0233289F483818B
:102B500090E0982F88273281832BA0E0B0E080930B
:102B60001A0190931B01A0931C01B0931D010FC08B
:102B7000203239F467E070E08EE191E00E9458194C
:102B80000AC0223221F482818093250104C02D7F66
:102B9000203209F03EC080911E0190911F01A0914A
:102BA0002001B0912101803B9440A105B10501F5C0
:102BB0008091250180FD1CC0809100089091010842
:102BC0009093FF0A8093FE0A87E797E790930108A6
:102BD000809300082BE088E190E00FB6F894A89568
:102BE000809360000FBE2093600013C080E00895C2
:102BF00088E10FB6F89480936000109260000FBED9
:102C0000A8958091FE0A9091FF0A90930108809305
:102C1000000881E008952FEF3FEFFC0135872487FE
:102C200008951092E3031092E20388EE93E0A0E08F
:102C3000B0E08093E4039093E503A093E603B093A0
:102C4000E7038AE493E09093E1038093E0038FEF3E
:102C50009FEF9093ED038093EC030895AF92BF92A2
:102C6000CF92DF92EF92FF920F931F93CF93DF9358
:102C70006C017B01C0E0D0E000E010E0F601EC0F59
:102C8000FD1F4AE050E06281C7010E9443175C01CA
:102C90006EE2C7010E94C0168A0D9B1D080F191F06
:102CA0002196C330D10551F74AE050E0F601658125
:102CB000C7010E944317800F911FDF91CF911F9191
:102CC0000F91FF90EF90DF90CF90BF90AF9008955D
:102CD0002AE533E0FC0131832083128213821482BF
:102CE000158208950F93FC018AE593E09183808318
:102CF00062834383248305830F9108952AE533E09B
:102D0000FC0131832083FB01408151816281738109
:102D1000FC0142835383648375830895FB014081E2
:102D2000518162817381FC01428353836483758383
:102D300008958AE593E090933104809330041092D3
:102D40003204109233041092340410923504089522
:102D50006115710581F0DB010D900020E9F7AD01EF
:102D600041505109461B570BDC01ED91FC9102804B
:102D7000F381E02D099480E090E008950C94A8166A
:102D8000DC01ED91FC910190F081E02D09946CE55E
:102D900073E00C94A8160F931F93CF93DF93EC016D
:102DA0000E94A8168C01CE010E94C716800F911FA9
:102DB000DF91CF911F910F9108958F929F92AF92C3
:102DC000BF92CF92DF92EF92FF920F931F93CF9318
:102DD000DF93CDB7DEB7A1970FB6F894DEBF0FBE75
:102DE000CDBF7C01C42EE52FCB01D22E19A221E04C
:102DF0002D1510F02AE0D22E8E010F5D1F4F8D2C65
:102E0000912CA12CB12C6C2D7E2FA50194010E9438
:102E1000251D8C2DD29E80191124015011098A3054
:102E200014F4805D01C0895CF801808321153105AF
:102E30004105510521F0C22EE32FCA01E4CFB801AC
:102E4000C7010E94A816A1960FB6F894DEBF0FBE68
:102E5000CDBFDF91CF911F910F91FF90EF90DF9049
:102E6000CF90BF90AF909F908F900895211531051E
:102E700041F4DC01ED91FC910190F081E02D642F93
:102E800009940C94DD169A01462F50E060E070E042
:102E90000C943617615030F02091F100FC01208332
:102EA0000196F8CF289884E680933F0408954091D6
:102EB0003A0450913B042091380430913904421770
:102EC0005307B4F49091E8009570E1F39091E80015
:102ED00092FD19C08093F10080913A0490913B04D7
:102EE00001968F739927892B19F48EEF8093E80050
:102EF00080913A0490913B04019690933B04809317
:102F00003A0481E0089580E00895CF92DF92EF9235
:102F1000FF920F931F93CF93DF931F92CDB7DEB72E
:102F2000082F162FF42E862F880F8E5F99830E940C
:102F3000571783E00E945717E02EC02E9981D92E93
:102F40008C2D8E19811798F4F601F7FE02C084913A
:102F500001C080810E945717082F80E00E945717F8
:102F60008023FFEFCF1ADF0A8111EACF01C081E091
:102F70000F90DF91CF911F910F91FF90EF90DF9015
:102F8000CF9008958091D70081608093D70080EA28
:102F90008093D80089B5806189BD89B5826089BD7B
:102FA00009B400FEFDCF61E070E080E090E00E9497
:102FB000D7138091D8008F7C80618093D800809156
:102FC000E000807F8093E0000895CF93DF931F920D
:102FD000CDB7DEB71982CE0101960E9487150E94F7
:102FE000111DBE016F5F7F4F0E948A1C89810F9067
:102FF000DF91CF9108952FB7FC012083F89467707B
:103000006093E9000895CF93DF931F92CDB7DEB7A9
:10301000682FCE0101960E94FB178091F2009981E2
:103020009FBF0F90DF91CF910895FF920F931F9351
:10303000CF93DF9300D0CDB7DEB7F62E8A01909103
:103040003E04992311F057FF03C08FEF9FEF2BC071
:10305000682FCE0101967A830E94FB178091F200BF
:1030600090E0A8017A81801791070CF4AC01EF2D54
:10307000F72FF40E84E6FE1639F0289880933F046B
:103080009091F1009193F7CF4115510521F0809176
:10309000F200882321F089818FBFCA0104C08BE62A
:1030A0008093E800F8CF0F900F90DF91CF911F91A0
:1030B0000F91FF900895CF93DF931F92CDB7DEB7A6
:1030C00041E050E0BE016F5F7F4F0E9415180197ED
:1030D00019F4898190E002C08FEF9FEF0F90DF918C
:1030E000CF910895CF93DF931F92CDB7DEB7682FAE
:1030F000CE0101960E94FB179091E800892F807203
:1031000095FF04C09091F20080E4891B99819FBFD4
:103110000F90DF91CF9108956F927F928F929F923F
:10312000AF92BF92CF92DF92EF92FF920F931F93D5
:10313000CF93DF931F92CDB7DEB7782E7B01C42EDD
:10314000B52E80913E04882369F0042F152F8AEF55
:10315000D82E872D8072982E9AE3A92E872D807401
:10316000882E11C08FEF9FEF57C0872D0E947218D5
:10317000682E81110CC0DA94A9F361E070E080E060
:1031800090E00E94D7130115110579F73BC0282F55
:1031900030E0021713070CF4602E672DCE01019664
:1031A0000E94FB178091E80085FF29C0262D30E0A2
:1031B000021B130B992039F06A948FEF6816B1F057
:1031C0001092F100F9CFF701862D77FE07C08150EC
:1031D00058F094919093F1003196F9CF815020F0FE
:1031E00091919093F100FACFE20EF31E8091E800E6
:1031F00085FF0FC00115110511F481100AC08981E6
:103200008FBFC1CF5D9884E6809340048C2D9B2DA9
:1032100003C0A092E800F3CF0F90DF91CF911F91F0
:103220000F91FF90EF90DF90CF90BF90AF909F9065
:103230008F907F906F9008951092E90010923B0458
:1032400010923A0490933904809338040895CF92F1
:10325000DF92FF920F931F93CF93DF9300D0CDB7F0
:10326000DEB7F82E8A016B0101151105B1F0F601E8
:10327000F7FE02C0849101C0808149835A830E9475
:10328000571701501109FFEFCF1ADF0A49815A8100
:103290008111EACF8FEF9FEF01C0CA010F900F900D
:1032A000DF91CF911F910F91FF90DF90CF90089504
:1032B0001F93CF93DF931F92CDB7DEB7162F2091C8
:1032C000E80022FFFCCF612F79830E944A178BEF21
:1032D0008093E800812F7981972F0F90DF91CF9114
:1032E0001F9108951F920F920FB60F921124DF9233
:1032F000EF92FF920F931F932F933F934F935F9300
:103300006F937F938F939F93AF93BF93EF93FF93AD
:10331000CF93DF93CDB7DEB76C97DEBFCDBF1092F2
:10332000E9008091E80083FF23C168E0CE01459663
:103330000E944A1782EF8093E8003D8937FF05C05D
:103340008091E80080FFFCCF03C08EEF8093E800FF
:10335000832F807609F0F0C02E894F89D88C2111F7
:103360000CC0303829F480913D048093F10002C0F4
:103370001092F1001092F100F4C0842F90E09D298A
:10338000213049F43111EDC0019709F0EAC0809174
:103390003D048D7F0AC0233059F43111E2C00197FA
:1033A00009F0DFC080913D04826080933D04D9C064
:1033B000253041F48091E80080FFFCCF40684093C5
:1033C000E300CFC0263009F08DC0EB8CFC8C22E0EE
:1033D000D2122CC080E090E00E941C190E94E517D8
:1033E00099E08E010F5F1F4FF801292F11922A9546
:1033F000E9F79983DA8291E09E8390EA98879AEFC1
:10340000998720913A0430913B04275F3F4F3C83DA
:103410002B838D83C7010E941C1949E050E0B8013D
:1034200080E00E9427190E94E5179BC0C7010E94F7
:103430001C190E94111DBE016B5E7F4F0E94B31CC0
:10344000009719F00CF08DC090C081E0D8120EC02A
:103450008B8D9C8D089719F481E0809337048091BF
:10346000370481112FC065EA71E031C0E3E0DE125C
:103470007CC08F89882349F1823029F440E86BE0D1
:1034800083EC91E01CC0813029F440E86BE087EBCD
:1034900091E015C0833009F068C00E94111D8E01B3
:1034A0000F5F1F4FB8010E94D21CF801019000204D
:1034B000E9F73197E01BF10B40E06E2FC8010E9445
:1034C00085174DC063E971E002C06FEC71E06115D2
:1034D000710509F44AC0FB01449150E080E80E9464
:1034E00027193FC0273009F440C0283021F481E07B
:1034F0008093F10036C02930A1F53370B1F5E7E2D1
:10350000F1E081E021E036E39081992361F080933E
:10351000E9002093EB0091919093EC003093ED0043
:103520008F5F873089F78EE78093EA001092EA0078
:103530008F8980933E0415C08B8D9C8D0E941C1931
:10354000898D811105C0CE0145960E94921507C054
:103550000E94111DBE016B5E7F4F0E94F11C8823EB
:1035600021F08EEF8093E80003C081E28093EB00AE
:103570006C960FB6F894DEBF0FBECDBFDF91CF9132
:10358000FF91EF91BF91AF919F918F917F916F913B
:103590005F914F913F912F911F910F91FF90EF906D
:1035A000DF900F900FBE0F901F9018958093E90049
:1035B0008091F200882319F08AE38093E80008954F
:1035C0001F920F920FB60F9211242F933F934F9398
:1035D0005F936F937F938F939F93AF93BF93CF939B
:1035E000EF93FF93C091E1008091E100837F80938E
:1035F000E1008093E100C3FF0FC01092E90081E079
:103600008093EB001092EC0082E38093ED00109227
:103610003E0488E08093F000C2FF19C083E00E945E
:10362000D61A80914004882339F08091400481505B
:1036300080934004882389F180913F04882339F0E6
:1036400080913F04815080933F04882341F1C4FF5F
:1036500010C08091E2008E7E81608093E2008091B4
:10366000E1008F7E8093E10080913C048E7E80613A
:1036700011C0C0FF16C08091E2008E7E80618093F1
:10368000E2008091E1008E7E8093E10080913C0415
:103690008E7E816080933C0404C05D9ACDCF289AD1
:1036A000D6CFFF91EF91CF91BF91AF919F918F9125
:1036B0007F916F915F914F913F912F910F900FBE2E
:1036C0000F901F90189510923E0410923D04109296
:1036D0003C040E94C217E1EEF0E080818E7E808380
:1036E0008DE08093E200559A209A089570E09B0146
:1036F000382BC9010895FC01808191810C94E51D4E
:10370000CF93DF93EC0188819981009711F00E949B
:10371000E51D198218821D821C821B821A82DF918C
:10372000CF9108950F931F93CF93DF93EC018B01FB
:103730006F5F7F4F888199810E94741E009731F0DE
:10374000998388831B830A8381E001C080E0DF9135
:10375000CF911F910F910895CF93DF93EC01888152
:103760009981892B29F08A819B818617970760F4BC
:10377000CE010E94921B882341F08C819D81892B70
:1037800019F4E881F981108281E0DF91CF910895E9
:10379000EF92FF920F931F93CF93DF93EC017B0186
:1037A0008A01BA010E94AC1B811104C0CE010E94A3
:1037B000801B07C01D830C83B701888199810E94FB
:1037C000471FCE01DF91CF911F910F91FF90EF9096
:1037D0000895FC01118210821382128215821482D4
:1037E0006115710559F0FB0101900020E9F7AF0167
:1037F00041505109461B570B0C94C81B0895CF9399
:10380000DF93EC016115710561F0FB01019000206F
:10381000E9F7AF0141505109461B570B0E94C81BE5
:1038200002C00E94801BCE01DF91CF910895EF92DC
:10383000FF920F931F93CF93DF93EC017B010C81D9
:103840001D816115710511F480E016C04115510507
:1038500091F0040F151FB8010E94AC1B8823A1F33F
:10386000288139818C819D81B701820F931F0E942D
:10387000471F1D830C8381E0DF91CF911F910F9132
:10388000FF90EF900895CF93DF9300D0CDB7DEB7D0
:1038900069831A8241E050E0BE016F5F7F4F0E9452
:1038A000171C0F900F90DF91CF910895CF93DF9366
:1038B000FC01848195814817590778F4C081D18132
:1038C000FB0160817181CE01840F951F0E944E1F04
:1038D000009719F08C1B9D0B02C08FEF9FEFDF91BB
:1038E000CF91089540E050E00C94561C08950E943A
:1038F000FF130E94761C86E394E00E94631B0E94E3
:103900006101C0E0D0E00E94BF012097E1F30E9476
:103910000000F9CFEF92FF920F931F93CF93DF93A5
:103920007B01FC01C281D38100E010E0209781F08F
:10393000E881F9810280F381E02DB701CE0109957C
:1039400097FD08C0080F191F0884D985C02DEECF38
:10395000C80102C08FEF9FEFDF91CF911F910F91B0
:10396000FF90EF9008950F931F93CF93DF938B01F8
:10397000FC01C281D381209771F0E881F981048034
:10398000F581E02DB801CE010995009731F4088446
:10399000D985C02DF0CF80E090E0DF91CF911F91CD
:1039A0000F9108950F931F93CF93DF938B01FC0129
:1039B000C281D381209771F0E881F9810680F78177
:1039C000E02DB801CE010995080F111D0884D98595
:1039D000C02DF0CFF8011082DF91CF911F910F9190
:1039E00008950F931F93CF93DF938B01FC01C28146
:1039F000D381209771F0E881F9810190F081E02D69
:103A0000B801CE010995811106C00884D985C02D61
:103A1000F0CF80E001C081E0DF91CF911F910F9145
:103A200008958091450481110DC082E08093410486
:103A300084E080934204109244041092430481E095
:103A40008093450481E494E00895A1E21A2EAA1B14
:103A5000BB1BFD010DC0AA1FBB1FEE1FFF1FA2173E
:103A6000B307E407F50720F0A21BB30BE40BF50B3B
:103A7000661F771F881F991F1A9469F760957095C4
:103A8000809590959B01AC01BD01CF010895EE0F8B
:103A9000FF1F0590F491E02D0994CF93DF938230BE
:103AA000910510F482E090E0E0914F04F091500411
:103AB00020E030E0A0E0B0E0309739F14081518162
:103AC00048175907B8F04817590771F48281938154
:103AD000109729F013969C938E9312972CC0909375
:103AE000500480934F0427C02115310531F042174F
:103AF000530718F0A901DB0101C0EF019A01BD01D4
:103B0000DF010280F381E02DD7CF21153105F9F0D7
:103B1000281B390B2430310580F48A819B81611583
:103B2000710521F0FB019383828304C090935004BC
:103B300080934F04FE01329644C0FE01E20FF31F52
:103B40008193919322503109398328833AC020917F
:103B50004D0430914E04232B41F420910201309109
:103B6000030130934E0420934D04209100013091C5
:103B700001012115310541F42DB73EB740910401F3
:103B800050910501241B350BE0914D04F0914E043A
:103B9000E217F307A0F42E1B3F0B2817390778F024
:103BA000AC014E5F5F4F2417350748F04E0F5F1F83
:103BB00050934E0440934D048193919302C0E0E0F2
:103BC000F0E0CF01DF91CF910895CF93DF9300977D
:103BD00009F487C0FC01329713821282C0914F040E
:103BE000D0915004209781F420813181280F391F12
:103BF00080914D0490914E048217930779F5F093CC
:103C00004E04E0934D046DC0DE0120E030E0AE17BD
:103C1000BF0750F412964D915C9113979D01411589
:103C2000510509F1DA01F3CFB383A28340815181B9
:103C3000840F951F8A179B0771F48D919C911197A2
:103C4000840F951F02969183808312968D919C918B
:103C50001397938382832115310529F4F09350043F
:103C6000E0934F043EC0D9011396FC93EE93129754
:103C70004D915D91A40FB51FEA17FB0779F4808180
:103C80009181840F951F0296D90111969C938E9372
:103C90008281938113969C938E931297E0E0F0E0DB
:103CA0008A819B81009719F0FE01EC01F9CFCE01CA
:103CB000029628813981820F931F20914D04309103
:103CC0004E042817390769F4309729F410925004EC
:103CD00010924F0402C013821282D0934E04C093FC
:103CE0004D04DF91CF910895A0E0B0E0EAE7FEE156
:103CF0000C946C1FEC01CB01209719F40E944D1D10
:103D0000B8C0FE01E60FF71F9E0122503109E217ED
:103D1000F30708F4ACC0D9010D911C911197061757
:103D20001707B8F00530110508F49FC0A8014450EA
:103D300051094617570708F498C002501109061B8D
:103D4000170B019311936D937C93CF010E94E51D96
:103D50008CC05B01A01AB10A4E01800E911EA09189
:103D60004F04B0915004612C712C60E070E010970A
:103D700009F449C0A815B905C9F5ED90FC90119753
:103D8000670142E0C40ED11CCA14DB0478F147017C
:103D90008A189B08640142E0C40ED11C1296BC90A4
:103DA00012971396AC91B5E0CB16D10440F0B282D5
:103DB000A38391828082D9018D939C9309C00E5F69
:103DC0001F4F0E0D1F1DF90111830083EB2DFA2FDC
:103DD0006115710531F0DB011396FC93EE93129798
:103DE00044C0F0935004E0934F043FC06D917C9128
:103DF00011976616770608F43B01BD0112960D90E7
:103E0000BC91A02DB4CF60914D0470914E04681503
:103E10007905E9F468167906D0F4409100015091D3
:103E200001014115510541F44DB75EB760910401A0
:103E300070910501461B570BE417F507C0F4F0938A
:103E40004E04E0934D04F901918380830EC00E94DB
:103E50004D1D7C01009759F0A801BE010E943E1F34
:103E6000CE010E94E51DC70104C0CE0102C080E062
:103E700090E0CDB7DEB7EEE00C94881FFB01DC01CB
:103E800002C001900D9241505040D8F70895FB01B7
:103E9000DC0101900D920020E1F70895FB015191A2
:103EA0005523A9F0BF01DC014D9145174111E1F700
:103EB00059F4CD010190002049F04D914015411178
:103EC000C9F3FB014111EFCF81E090E00197089524
:103ED0002F923F924F925F926F927F928F929F921A
:103EE000AF92BF92CF92DF92EF92FF920F931F9308
:103EF000CF93DF93CDB7DEB7CA1BDB0B0FB6F894B9
:103F0000DEBF0FBECDBF09942A88398848885F84F8
:103F10006E847D848C849B84AA84B984C884DF8069
:103F2000EE80FD800C811B81AA81B981CE0FD11D4D
:103F30000FB6F894DEBF0FBECDBFED010895F89423
:023F4000FFCFB1
:103F420000005104800001000000FFFFFF00C0A834
:103F52000A0CDEAFBEEFFEEF00C0FFFFFFFF00E185
:103F620000000000000000C1808100000001005E2E
:103F7200000000485454502F312E3120323030206E
:103F82004F4B00436F6E74656E742D547970653AB1
:103F920020746578742F68746D6C003C666F726D66
:103FA20020616374696F6E3D22687474703A2F2FBA
:103FB2003139322E3136382E31302E3139302F22EE
:103FC200203E003C7020616C69676E3D2263656E25
:103FD200746572223E436F6D7075746572206973E9
:103FE200203C666F6E7420636F6C6F723D27677240
:103FF20065656E273E4F4E3C2F666F6E743E3C2FBA
:10400200703E003C7020616C69676E3D2263656E94
:10401200746572223E436F6D7075746572206973A8
:10402200203C666F6E7420636F6C6F723D27726501
:1040320064273E4F46463C2F666F6E743E3C2F709F
:104042003E003C7020616C69676E3D2263656E7450
:104052006572223E3C494E50555420747970653D3C
:1040620022726164696F22206E616D653D227374F4
:1040720061747573222076616C75653D223131223F
:104082003E4F46463C2F703E003C7020616C696793
:104092006E3D2263656E746572223E3C494E5055F8
:1040A2005420747970653D22726164696F22206EBA
:1040B200616D653D22737461747573222076616C43
:1040C20075653D223130223E4F4E3C2F703E003C02
:1040D2007020616C69676E3D2263656E7465722241
:1040E2003E3C696E70757420747970653D227375FB
:1040F200626D6974222076616C75653D225375622A
:104102006D6974223E203C2F703E3C2F666F726DAB
:104112003E00474554202F3F7374617475733D31DF
:104122003100474554202F3F7374617475733D31DC
:10413200300000000000E5060E07280731074F0790
:104142007207000876074B075D089708FB06D6063C
:10415200D9060307DB0600000000C6088C09DC084C
:10416200000000007B0AB30A770AC70A0D0B910A06
:10417200260B920AA70A530CAF0A530BF00A5C0AE9
:10418200630A730AA90B000000002A157115541561
:10419200641540155115000000002E160D0A006E20
:0E41A200616E00696E66006F7666002E00008A
:00000001FF
